{"contracts/Counter.sol":{"Counter":{"abi":[{"inputs":[{"internalType":"uint256","name":"num1","type":"uint256"},{"internalType":"uint256","name":"num2","type":"uint256"}],"name":"add","outputs":[],"stateMutability":"nonpayable","type":"function"},{"inputs":[{"internalType":"uint256","name":"num1","type":"uint256"},{"internalType":"uint256","name":"num2","type":"uint256"}],"name":"divide","outputs":[],"stateMutability":"nonpayable","type":"function"},{"inputs":[],"name":"divided","outputs":[{"internalType":"uint256","name":"","type":"uint256"}],"stateMutability":"view","type":"function"},{"inputs":[],"name":"multiplied","outputs":[{"internalType":"uint256","name":"","type":"uint256"}],"stateMutability":"view","type":"function"},{"inputs":[{"internalType":"uint256","name":"num1","type":"uint256"},{"internalType":"uint256","name":"num2","type":"uint256"}],"name":"multiply","outputs":[],"stateMutability":"nonpayable","type":"function"},{"inputs":[],"name":"returnValues","outputs":[{"internalType":"uint256","name":"","type":"uint256"},{"internalType":"uint256","name":"","type":"uint256"},{"internalType":"uint256","name":"","type":"uint256"},{"internalType":"uint256","name":"","type":"uint256"}],"stateMutability":"view","type":"function"},{"inputs":[{"internalType":"uint256","name":"num1","type":"uint256"},{"internalType":"uint256","name":"num2","type":"uint256"}],"name":"substract","outputs":[],"stateMutability":"nonpayable","type":"function"},{"inputs":[],"name":"substracted","outputs":[{"internalType":"uint256","name":"","type":"uint256"}],"stateMutability":"view","type":"function"},{"inputs":[],"name":"total","outputs":[{"internalType":"uint256","name":"","type":"uint256"}],"stateMutability":"view","type":"function"}],"evm":{"bytecode":{"linkReferences":{},"object":"608060405234801561001057600080fd5b5061079b806100206000396000f3fe608060405234801561001057600080fd5b50600436106100935760003560e01c80635d4e1e5c116100665780635d4e1e5c1461010e578063771602f71461012a578063902dd69e14610146578063dddd904614610164578063f88e9fbf1461018557610093565b8063165c4a16146100985780632ddbd13a146100b457806334390d45146100d257806356469b6c146100f0575b600080fd5b6100b260048036038101906100ad9190610365565b6101a1565b005b6100bc61020a565b6040516100c991906104bc565b60405180910390f35b6100da610210565b6040516100e791906104bc565b60405180910390f35b6100f8610216565b60405161010591906104bc565b60405180910390f35b61012860048036038101906101239190610365565b61021c565b005b610144600480360381019061013f9190610365565b610275565b005b61014e6102d0565b60405161015b91906104bc565b60405180910390f35b61016c6102d6565b60405161017c94939291906104d7565b60405180910390f35b61019f600480360381019061019a9190610365565b6102f6565b005b80826101ad91906105b4565b60028190555081600054101580156101c757508060005410155b610206576040517f08c379a00000000000000000000000000000000000000000000000000000000081526004016101fd9061049c565b60405180910390fd5b5050565b60005481565b60035481565b60015481565b8082610228919061060e565b60018190555080821015610271576040517f08c379a00000000000000000000000000000000000000000000000000000000081526004016102689061043c565b60405180910390fd5b5050565b8082610281919061052d565b6000819055508160005410156102cc576040517f08c379a00000000000000000000000000000000000000000000000000000000081526004016102c39061045c565b60405180910390fd5b5050565b60025481565b600080600080600054600154600254600354935093509350935090919293565b600081141561033a576040517f08c379a00000000000000000000000000000000000000000000000000000000081526004016103319061047c565b60405180910390fd5b80826103469190610583565b6003819055505050565b60008135905061035f8161074e565b92915050565b6000806040838503121561037857600080fd5b600061038685828601610350565b925050602061039785828601610350565b9150509250929050565b60006103ae60188361051c565b91506103b9826106aa565b602082019050919050565b60006103d160148361051c565b91506103dc826106d3565b602082019050919050565b60006103f460148361051c565b91506103ff826106fc565b602082019050919050565b6000610417601a8361051c565b915061042282610725565b602082019050919050565b61043681610642565b82525050565b60006020820190508181036000830152610455816103a1565b9050919050565b60006020820190508181036000830152610475816103c4565b9050919050565b60006020820190508181036000830152610495816103e7565b9050919050565b600060208201905081810360008301526104b58161040a565b9050919050565b60006020820190506104d1600083018461042d565b92915050565b60006080820190506104ec600083018761042d565b6104f9602083018661042d565b610506604083018561042d565b610513606083018461042d565b95945050505050565b600082825260208201905092915050565b600061053882610642565b915061054383610642565b9250827fffffffffffffffffffffffffffffffffffffffffffffffffffffffffffffffff038211156105785761057761064c565b5b828201905092915050565b600061058e82610642565b915061059983610642565b9250826105a9576105a861067b565b5b828204905092915050565b60006105bf82610642565b91506105ca83610642565b9250817fffffffffffffffffffffffffffffffffffffffffffffffffffffffffffffffff04831182151516156106035761060261064c565b5b828202905092915050565b600061061982610642565b915061062483610642565b9250828210156106375761063661064c565b5b828203905092915050565b6000819050919050565b7f4e487b7100000000000000000000000000000000000000000000000000000000600052601160045260246000fd5b7f4e487b7100000000000000000000000000000000000000000000000000000000600052601260045260246000fd5b7f537562737472616374696f6e20697320696e76616c6964210000000000000000600082015250565b7f4164646974696f6e20697320696e76616c69642e000000000000000000000000600082015250565b7f4469766973696f6e20697320696e76616c69642e000000000000000000000000600082015250565b7f4d756c7469706c69636174696f6e20697320696e76616c69642e000000000000600082015250565b61075781610642565b811461076257600080fd5b5056fea26469706673582212205c42178f695bb3439b2b4afa16fd4dd437afafe60f12b4780faef72509a643d364736f6c63430008020033","opcodes":"PUSH1 0x80 PUSH1 0x40 MSTORE CALLVALUE DUP1 ISZERO PUSH2 0x10 JUMPI PUSH1 0x0 DUP1 REVERT JUMPDEST POP PUSH2 0x79B DUP1 PUSH2 0x20 PUSH1 0x0 CODECOPY PUSH1 0x0 RETURN INVALID PUSH1 0x80 PUSH1 0x40 MSTORE CALLVALUE DUP1 ISZERO PUSH2 0x10 JUMPI PUSH1 0x0 DUP1 REVERT JUMPDEST POP PUSH1 0x4 CALLDATASIZE LT PUSH2 0x93 JUMPI PUSH1 0x0 CALLDATALOAD PUSH1 0xE0 SHR DUP1 PUSH4 0x5D4E1E5C GT PUSH2 0x66 JUMPI DUP1 PUSH4 0x5D4E1E5C EQ PUSH2 0x10E JUMPI DUP1 PUSH4 0x771602F7 EQ PUSH2 0x12A JUMPI DUP1 PUSH4 0x902DD69E EQ PUSH2 0x146 JUMPI DUP1 PUSH4 0xDDDD9046 EQ PUSH2 0x164 JUMPI DUP1 PUSH4 0xF88E9FBF EQ PUSH2 0x185 JUMPI PUSH2 0x93 JUMP JUMPDEST DUP1 PUSH4 0x165C4A16 EQ PUSH2 0x98 JUMPI DUP1 PUSH4 0x2DDBD13A EQ PUSH2 0xB4 JUMPI DUP1 PUSH4 0x34390D45 EQ PUSH2 0xD2 JUMPI DUP1 PUSH4 0x56469B6C EQ PUSH2 0xF0 JUMPI JUMPDEST PUSH1 0x0 DUP1 REVERT JUMPDEST PUSH2 0xB2 PUSH1 0x4 DUP1 CALLDATASIZE SUB DUP2 ADD SWAP1 PUSH2 0xAD SWAP2 SWAP1 PUSH2 0x365 JUMP JUMPDEST PUSH2 0x1A1 JUMP JUMPDEST STOP JUMPDEST PUSH2 0xBC PUSH2 0x20A JUMP JUMPDEST PUSH1 0x40 MLOAD PUSH2 0xC9 SWAP2 SWAP1 PUSH2 0x4BC JUMP JUMPDEST PUSH1 0x40 MLOAD DUP1 SWAP2 SUB SWAP1 RETURN JUMPDEST PUSH2 0xDA PUSH2 0x210 JUMP JUMPDEST PUSH1 0x40 MLOAD PUSH2 0xE7 SWAP2 SWAP1 PUSH2 0x4BC JUMP JUMPDEST PUSH1 0x40 MLOAD DUP1 SWAP2 SUB SWAP1 RETURN JUMPDEST PUSH2 0xF8 PUSH2 0x216 JUMP JUMPDEST PUSH1 0x40 MLOAD PUSH2 0x105 SWAP2 SWAP1 PUSH2 0x4BC JUMP JUMPDEST PUSH1 0x40 MLOAD DUP1 SWAP2 SUB SWAP1 RETURN JUMPDEST PUSH2 0x128 PUSH1 0x4 DUP1 CALLDATASIZE SUB DUP2 ADD SWAP1 PUSH2 0x123 SWAP2 SWAP1 PUSH2 0x365 JUMP JUMPDEST PUSH2 0x21C JUMP JUMPDEST STOP JUMPDEST PUSH2 0x144 PUSH1 0x4 DUP1 CALLDATASIZE SUB DUP2 ADD SWAP1 PUSH2 0x13F SWAP2 SWAP1 PUSH2 0x365 JUMP JUMPDEST PUSH2 0x275 JUMP JUMPDEST STOP JUMPDEST PUSH2 0x14E PUSH2 0x2D0 JUMP JUMPDEST PUSH1 0x40 MLOAD PUSH2 0x15B SWAP2 SWAP1 PUSH2 0x4BC JUMP JUMPDEST PUSH1 0x40 MLOAD DUP1 SWAP2 SUB SWAP1 RETURN JUMPDEST PUSH2 0x16C PUSH2 0x2D6 JUMP JUMPDEST PUSH1 0x40 MLOAD PUSH2 0x17C SWAP5 SWAP4 SWAP3 SWAP2 SWAP1 PUSH2 0x4D7 JUMP JUMPDEST PUSH1 0x40 MLOAD DUP1 SWAP2 SUB SWAP1 RETURN JUMPDEST PUSH2 0x19F PUSH1 0x4 DUP1 CALLDATASIZE SUB DUP2 ADD SWAP1 PUSH2 0x19A SWAP2 SWAP1 PUSH2 0x365 JUMP JUMPDEST PUSH2 0x2F6 JUMP JUMPDEST STOP JUMPDEST DUP1 DUP3 PUSH2 0x1AD SWAP2 SWAP1 PUSH2 0x5B4 JUMP JUMPDEST PUSH1 0x2 DUP2 SWAP1 SSTORE POP DUP2 PUSH1 0x0 SLOAD LT ISZERO DUP1 ISZERO PUSH2 0x1C7 JUMPI POP DUP1 PUSH1 0x0 SLOAD LT ISZERO JUMPDEST PUSH2 0x206 JUMPI PUSH1 0x40 MLOAD PUSH32 0x8C379A000000000000000000000000000000000000000000000000000000000 DUP2 MSTORE PUSH1 0x4 ADD PUSH2 0x1FD SWAP1 PUSH2 0x49C JUMP JUMPDEST PUSH1 0x40 MLOAD DUP1 SWAP2 SUB SWAP1 REVERT JUMPDEST POP POP JUMP JUMPDEST PUSH1 0x0 SLOAD DUP2 JUMP JUMPDEST PUSH1 0x3 SLOAD DUP2 JUMP JUMPDEST PUSH1 0x1 SLOAD DUP2 JUMP JUMPDEST DUP1 DUP3 PUSH2 0x228 SWAP2 SWAP1 PUSH2 0x60E JUMP JUMPDEST PUSH1 0x1 DUP2 SWAP1 SSTORE POP DUP1 DUP3 LT ISZERO PUSH2 0x271 JUMPI PUSH1 0x40 MLOAD PUSH32 0x8C379A000000000000000000000000000000000000000000000000000000000 DUP2 MSTORE PUSH1 0x4 ADD PUSH2 0x268 SWAP1 PUSH2 0x43C JUMP JUMPDEST PUSH1 0x40 MLOAD DUP1 SWAP2 SUB SWAP1 REVERT JUMPDEST POP POP JUMP JUMPDEST DUP1 DUP3 PUSH2 0x281 SWAP2 SWAP1 PUSH2 0x52D JUMP JUMPDEST PUSH1 0x0 DUP2 SWAP1 SSTORE POP DUP2 PUSH1 0x0 SLOAD LT ISZERO PUSH2 0x2CC JUMPI PUSH1 0x40 MLOAD PUSH32 0x8C379A000000000000000000000000000000000000000000000000000000000 DUP2 MSTORE PUSH1 0x4 ADD PUSH2 0x2C3 SWAP1 PUSH2 0x45C JUMP JUMPDEST PUSH1 0x40 MLOAD DUP1 SWAP2 SUB SWAP1 REVERT JUMPDEST POP POP JUMP JUMPDEST PUSH1 0x2 SLOAD DUP2 JUMP JUMPDEST PUSH1 0x0 DUP1 PUSH1 0x0 DUP1 PUSH1 0x0 SLOAD PUSH1 0x1 SLOAD PUSH1 0x2 SLOAD PUSH1 0x3 SLOAD SWAP4 POP SWAP4 POP SWAP4 POP SWAP4 POP SWAP1 SWAP2 SWAP3 SWAP4 JUMP JUMPDEST PUSH1 0x0 DUP2 EQ ISZERO PUSH2 0x33A JUMPI PUSH1 0x40 MLOAD PUSH32 0x8C379A000000000000000000000000000000000000000000000000000000000 DUP2 MSTORE PUSH1 0x4 ADD PUSH2 0x331 SWAP1 PUSH2 0x47C JUMP JUMPDEST PUSH1 0x40 MLOAD DUP1 SWAP2 SUB SWAP1 REVERT JUMPDEST DUP1 DUP3 PUSH2 0x346 SWAP2 SWAP1 PUSH2 0x583 JUMP JUMPDEST PUSH1 0x3 DUP2 SWAP1 SSTORE POP POP POP JUMP JUMPDEST PUSH1 0x0 DUP2 CALLDATALOAD SWAP1 POP PUSH2 0x35F DUP2 PUSH2 0x74E JUMP JUMPDEST SWAP3 SWAP2 POP POP JUMP JUMPDEST PUSH1 0x0 DUP1 PUSH1 0x40 DUP4 DUP6 SUB SLT ISZERO PUSH2 0x378 JUMPI PUSH1 0x0 DUP1 REVERT JUMPDEST PUSH1 0x0 PUSH2 0x386 DUP6 DUP3 DUP7 ADD PUSH2 0x350 JUMP JUMPDEST SWAP3 POP POP PUSH1 0x20 PUSH2 0x397 DUP6 DUP3 DUP7 ADD PUSH2 0x350 JUMP JUMPDEST SWAP2 POP POP SWAP3 POP SWAP3 SWAP1 POP JUMP JUMPDEST PUSH1 0x0 PUSH2 0x3AE PUSH1 0x18 DUP4 PUSH2 0x51C JUMP JUMPDEST SWAP2 POP PUSH2 0x3B9 DUP3 PUSH2 0x6AA JUMP JUMPDEST PUSH1 0x20 DUP3 ADD SWAP1 POP SWAP2 SWAP1 POP JUMP JUMPDEST PUSH1 0x0 PUSH2 0x3D1 PUSH1 0x14 DUP4 PUSH2 0x51C JUMP JUMPDEST SWAP2 POP PUSH2 0x3DC DUP3 PUSH2 0x6D3 JUMP JUMPDEST PUSH1 0x20 DUP3 ADD SWAP1 POP SWAP2 SWAP1 POP JUMP JUMPDEST PUSH1 0x0 PUSH2 0x3F4 PUSH1 0x14 DUP4 PUSH2 0x51C JUMP JUMPDEST SWAP2 POP PUSH2 0x3FF DUP3 PUSH2 0x6FC JUMP JUMPDEST PUSH1 0x20 DUP3 ADD SWAP1 POP SWAP2 SWAP1 POP JUMP JUMPDEST PUSH1 0x0 PUSH2 0x417 PUSH1 0x1A DUP4 PUSH2 0x51C JUMP JUMPDEST SWAP2 POP PUSH2 0x422 DUP3 PUSH2 0x725 JUMP JUMPDEST PUSH1 0x20 DUP3 ADD SWAP1 POP SWAP2 SWAP1 POP JUMP JUMPDEST PUSH2 0x436 DUP2 PUSH2 0x642 JUMP JUMPDEST DUP3 MSTORE POP POP JUMP JUMPDEST PUSH1 0x0 PUSH1 0x20 DUP3 ADD SWAP1 POP DUP2 DUP2 SUB PUSH1 0x0 DUP4 ADD MSTORE PUSH2 0x455 DUP2 PUSH2 0x3A1 JUMP JUMPDEST SWAP1 POP SWAP2 SWAP1 POP JUMP JUMPDEST PUSH1 0x0 PUSH1 0x20 DUP3 ADD SWAP1 POP DUP2 DUP2 SUB PUSH1 0x0 DUP4 ADD MSTORE PUSH2 0x475 DUP2 PUSH2 0x3C4 JUMP JUMPDEST SWAP1 POP SWAP2 SWAP1 POP JUMP JUMPDEST PUSH1 0x0 PUSH1 0x20 DUP3 ADD SWAP1 POP DUP2 DUP2 SUB PUSH1 0x0 DUP4 ADD MSTORE PUSH2 0x495 DUP2 PUSH2 0x3E7 JUMP JUMPDEST SWAP1 POP SWAP2 SWAP1 POP JUMP JUMPDEST PUSH1 0x0 PUSH1 0x20 DUP3 ADD SWAP1 POP DUP2 DUP2 SUB PUSH1 0x0 DUP4 ADD MSTORE PUSH2 0x4B5 DUP2 PUSH2 0x40A JUMP JUMPDEST SWAP1 POP SWAP2 SWAP1 POP JUMP JUMPDEST PUSH1 0x0 PUSH1 0x20 DUP3 ADD SWAP1 POP PUSH2 0x4D1 PUSH1 0x0 DUP4 ADD DUP5 PUSH2 0x42D JUMP JUMPDEST SWAP3 SWAP2 POP POP JUMP JUMPDEST PUSH1 0x0 PUSH1 0x80 DUP3 ADD SWAP1 POP PUSH2 0x4EC PUSH1 0x0 DUP4 ADD DUP8 PUSH2 0x42D JUMP JUMPDEST PUSH2 0x4F9 PUSH1 0x20 DUP4 ADD DUP7 PUSH2 0x42D JUMP JUMPDEST PUSH2 0x506 PUSH1 0x40 DUP4 ADD DUP6 PUSH2 0x42D JUMP JUMPDEST PUSH2 0x513 PUSH1 0x60 DUP4 ADD DUP5 PUSH2 0x42D JUMP JUMPDEST SWAP6 SWAP5 POP POP POP POP POP JUMP JUMPDEST PUSH1 0x0 DUP3 DUP3 MSTORE PUSH1 0x20 DUP3 ADD SWAP1 POP SWAP3 SWAP2 POP POP JUMP JUMPDEST PUSH1 0x0 PUSH2 0x538 DUP3 PUSH2 0x642 JUMP JUMPDEST SWAP2 POP PUSH2 0x543 DUP4 PUSH2 0x642 JUMP JUMPDEST SWAP3 POP DUP3 PUSH32 0xFFFFFFFFFFFFFFFFFFFFFFFFFFFFFFFFFFFFFFFFFFFFFFFFFFFFFFFFFFFFFFFF SUB DUP3 GT ISZERO PUSH2 0x578 JUMPI PUSH2 0x577 PUSH2 0x64C JUMP JUMPDEST JUMPDEST DUP3 DUP3 ADD SWAP1 POP SWAP3 SWAP2 POP POP JUMP JUMPDEST PUSH1 0x0 PUSH2 0x58E DUP3 PUSH2 0x642 JUMP JUMPDEST SWAP2 POP PUSH2 0x599 DUP4 PUSH2 0x642 JUMP JUMPDEST SWAP3 POP DUP3 PUSH2 0x5A9 JUMPI PUSH2 0x5A8 PUSH2 0x67B JUMP JUMPDEST JUMPDEST DUP3 DUP3 DIV SWAP1 POP SWAP3 SWAP2 POP POP JUMP JUMPDEST PUSH1 0x0 PUSH2 0x5BF DUP3 PUSH2 0x642 JUMP JUMPDEST SWAP2 POP PUSH2 0x5CA DUP4 PUSH2 0x642 JUMP JUMPDEST SWAP3 POP DUP2 PUSH32 0xFFFFFFFFFFFFFFFFFFFFFFFFFFFFFFFFFFFFFFFFFFFFFFFFFFFFFFFFFFFFFFFF DIV DUP4 GT DUP3 ISZERO ISZERO AND ISZERO PUSH2 0x603 JUMPI PUSH2 0x602 PUSH2 0x64C JUMP JUMPDEST JUMPDEST DUP3 DUP3 MUL SWAP1 POP SWAP3 SWAP2 POP POP JUMP JUMPDEST PUSH1 0x0 PUSH2 0x619 DUP3 PUSH2 0x642 JUMP JUMPDEST SWAP2 POP PUSH2 0x624 DUP4 PUSH2 0x642 JUMP JUMPDEST SWAP3 POP DUP3 DUP3 LT ISZERO PUSH2 0x637 JUMPI PUSH2 0x636 PUSH2 0x64C JUMP JUMPDEST JUMPDEST DUP3 DUP3 SUB SWAP1 POP SWAP3 SWAP2 POP POP JUMP JUMPDEST PUSH1 0x0 DUP2 SWAP1 POP SWAP2 SWAP1 POP JUMP JUMPDEST PUSH32 0x4E487B7100000000000000000000000000000000000000000000000000000000 PUSH1 0x0 MSTORE PUSH1 0x11 PUSH1 0x4 MSTORE PUSH1 0x24 PUSH1 0x0 REVERT JUMPDEST PUSH32 0x4E487B7100000000000000000000000000000000000000000000000000000000 PUSH1 0x0 MSTORE PUSH1 0x12 PUSH1 0x4 MSTORE PUSH1 0x24 PUSH1 0x0 REVERT JUMPDEST PUSH32 0x537562737472616374696F6E20697320696E76616C6964210000000000000000 PUSH1 0x0 DUP3 ADD MSTORE POP JUMP JUMPDEST PUSH32 0x4164646974696F6E20697320696E76616C69642E000000000000000000000000 PUSH1 0x0 DUP3 ADD MSTORE POP JUMP JUMPDEST PUSH32 0x4469766973696F6E20697320696E76616C69642E000000000000000000000000 PUSH1 0x0 DUP3 ADD MSTORE POP JUMP JUMPDEST PUSH32 0x4D756C7469706C69636174696F6E20697320696E76616C69642E000000000000 PUSH1 0x0 DUP3 ADD MSTORE POP JUMP JUMPDEST PUSH2 0x757 DUP2 PUSH2 0x642 JUMP JUMPDEST DUP2 EQ PUSH2 0x762 JUMPI PUSH1 0x0 DUP1 REVERT JUMPDEST POP JUMP INVALID LOG2 PUSH5 0x6970667358 0x22 SLT KECCAK256 0x5C TIMESTAMP OR DUP16 PUSH10 0x5BB3439B2B4AFA16FD4D 0xD4 CALLDATACOPY 0xAF 0xAF 0xE6 0xF SLT 0xB4 PUSH25 0xFAEF72509A643D364736F6C63430008020033000000000000 "},"methodIdentifiers":{"add(uint256,uint256)":"771602f7","divide(uint256,uint256)":"f88e9fbf","divided()":"34390d45","multiplied()":"902dd69e","multiply(uint256,uint256)":"165c4a16","returnValues()":"dddd9046","substract(uint256,uint256)":"5d4e1e5c","substracted()":"56469b6c","total()":"2ddbd13a"}}}}}