{
  "_format": "hh-sol-artifact-1",
  "contractName": "Counter",
  "sourceName": "contracts/Counter.sol",
  "abi": [
    {
      "inputs": [
        {
          "internalType": "uint256",
          "name": "number1",
          "type": "uint256"
        },
        {
          "internalType": "uint256",
          "name": "number2",
          "type": "uint256"
        }
      ],
      "name": "add",
      "outputs": [],
      "stateMutability": "nonpayable",
      "type": "function"
    },
    {
      "inputs": [
        {
          "internalType": "uint256",
          "name": "number1",
          "type": "uint256"
        },
        {
          "internalType": "uint256",
          "name": "number2",
          "type": "uint256"
        }
      ],
      "name": "divide",
      "outputs": [],
      "stateMutability": "nonpayable",
      "type": "function"
    },
    {
      "inputs": [],
      "name": "divided",
      "outputs": [
        {
          "internalType": "uint256",
          "name": "",
          "type": "uint256"
        }
      ],
      "stateMutability": "view",
      "type": "function"
    },
    {
      "inputs": [],
      "name": "multiplied",
      "outputs": [
        {
          "internalType": "uint256",
          "name": "",
          "type": "uint256"
        }
      ],
      "stateMutability": "view",
      "type": "function"
    },
    {
      "inputs": [
        {
          "internalType": "uint256",
          "name": "number1",
          "type": "uint256"
        },
        {
          "internalType": "uint256",
          "name": "number2",
          "type": "uint256"
        }
      ],
      "name": "multiply",
      "outputs": [],
      "stateMutability": "nonpayable",
      "type": "function"
    },
    {
      "inputs": [],
      "name": "returnValues",
      "outputs": [
        {
          "internalType": "uint256",
          "name": "",
          "type": "uint256"
        },
        {
          "internalType": "uint256",
          "name": "",
          "type": "uint256"
        },
        {
          "internalType": "uint256",
          "name": "",
          "type": "uint256"
        },
        {
          "internalType": "uint256",
          "name": "",
          "type": "uint256"
        }
      ],
      "stateMutability": "view",
      "type": "function"
    },
    {
      "inputs": [
        {
          "internalType": "uint256",
          "name": "number1",
          "type": "uint256"
        },
        {
          "internalType": "uint256",
          "name": "number2",
          "type": "uint256"
        }
      ],
      "name": "substract",
      "outputs": [],
      "stateMutability": "nonpayable",
      "type": "function"
    },
    {
      "inputs": [],
      "name": "substracted",
      "outputs": [
        {
          "internalType": "uint256",
          "name": "",
          "type": "uint256"
        }
      ],
      "stateMutability": "view",
      "type": "function"
    },
    {
      "inputs": [],
      "name": "total",
      "outputs": [
        {
          "internalType": "uint256",
          "name": "",
          "type": "uint256"
        }
      ],
      "stateMutability": "view",
      "type": "function"
    }
  ],
  "bytecode": "0x608060405234801561001057600080fd5b5061079b806100206000396000f3fe608060405234801561001057600080fd5b50600436106100935760003560e01c80635d4e1e5c116100665780635d4e1e5c1461010e578063771602f71461012a578063902dd69e14610146578063dddd904614610164578063f88e9fbf1461018557610093565b8063165c4a16146100985780632ddbd13a146100b457806334390d45146100d257806356469b6c146100f0575b600080fd5b6100b260048036038101906100ad9190610365565b6101a1565b005b6100bc61020a565b6040516100c991906104bc565b60405180910390f35b6100da610210565b6040516100e791906104bc565b60405180910390f35b6100f8610216565b60405161010591906104bc565b60405180910390f35b61012860048036038101906101239190610365565b61021c565b005b610144600480360381019061013f9190610365565b610275565b005b61014e6102d0565b60405161015b91906104bc565b60405180910390f35b61016c6102d6565b60405161017c94939291906104d7565b60405180910390f35b61019f600480360381019061019a9190610365565b6102f6565b005b80826101ad91906105b4565b60028190555081600054101580156101c757508060005410155b610206576040517f08c379a00000000000000000000000000000000000000000000000000000000081526004016101fd9061045c565b60405180910390fd5b5050565b60005481565b60035481565b60015481565b8082610228919061060e565b60018190555080821015610271576040517f08c379a00000000000000000000000000000000000000000000000000000000081526004016102689061043c565b60405180910390fd5b5050565b8082610281919061052d565b6000819055508160005410156102cc576040517f08c379a00000000000000000000000000000000000000000000000000000000081526004016102c39061047c565b60405180910390fd5b5050565b60025481565b600080600080600054600154600254600354935093509350935090919293565b600081141561033a576040517f08c379a00000000000000000000000000000000000000000000000000000000081526004016103319061049c565b60405180910390fd5b80826103469190610583565b6003819055505050565b60008135905061035f8161074e565b92915050565b6000806040838503121561037857600080fd5b600061038685828601610350565b925050602061039785828601610350565b9150509250929050565b60006103ae60188361051c565b91506103b9826106aa565b602082019050919050565b60006103d1601a8361051c565b91506103dc826106d3565b602082019050919050565b60006103f460148361051c565b91506103ff826106fc565b602082019050919050565b600061041760148361051c565b915061042282610725565b602082019050919050565b61043681610642565b82525050565b60006020820190508181036000830152610455816103a1565b9050919050565b60006020820190508181036000830152610475816103c4565b9050919050565b60006020820190508181036000830152610495816103e7565b9050919050565b600060208201905081810360008301526104b58161040a565b9050919050565b60006020820190506104d1600083018461042d565b92915050565b60006080820190506104ec600083018761042d565b6104f9602083018661042d565b610506604083018561042d565b610513606083018461042d565b95945050505050565b600082825260208201905092915050565b600061053882610642565b915061054383610642565b9250827fffffffffffffffffffffffffffffffffffffffffffffffffffffffffffffffff038211156105785761057761064c565b5b828201905092915050565b600061058e82610642565b915061059983610642565b9250826105a9576105a861067b565b5b828204905092915050565b60006105bf82610642565b91506105ca83610642565b9250817fffffffffffffffffffffffffffffffffffffffffffffffffffffffffffffffff04831182151516156106035761060261064c565b5b828202905092915050565b600061061982610642565b915061062483610642565b9250828210156106375761063661064c565b5b828203905092915050565b6000819050919050565b7f4e487b7100000000000000000000000000000000000000000000000000000000600052601160045260246000fd5b7f4e487b7100000000000000000000000000000000000000000000000000000000600052601260045260246000fd5b7f537562737472616374696f6e20697320696e76616c6964210000000000000000600082015250565b7f4d756c7469706c69636174696f6e20697320696e76616c696421000000000000600082015250565b7f4164646974696f6e20697320696e76616c696421000000000000000000000000600082015250565b7f4469766973696f6e20697320696e76616c696421000000000000000000000000600082015250565b61075781610642565b811461076257600080fd5b5056fea264697066735822122061c27862ee229e92fe4698171c7f238325a8fc4430f80be05dcd416004ad76eb64736f6c63430008020033",
  "linkReferences": {},
  "deployedLinkReferences": {}
}